{
  "_format": "hh-sol-artifact-1",
  "contractName": "BuyMeACoffee",
  "sourceName": "contracts/BuyMeACoffee.sol",
  "abi": [
    {
      "inputs": [],
      "stateMutability": "nonpayable",
      "type": "constructor"
    },
    {
      "anonymous": false,
      "inputs": [
        {
          "indexed": true,
          "internalType": "address",
          "name": "from",
          "type": "address"
        },
        {
          "indexed": false,
          "internalType": "uint256",
          "name": "timestamp",
          "type": "uint256"
        },
        {
          "indexed": false,
          "internalType": "string",
          "name": "name",
          "type": "string"
        },
        {
          "indexed": false,
          "internalType": "string",
          "name": "discord",
          "type": "string"
        }
      ],
      "name": "NewSubmission",
      "type": "event"
    },
    {
      "inputs": [
        {
          "internalType": "string",
          "name": "_name",
          "type": "string"
        },
        {
          "internalType": "string",
          "name": "_discord",
          "type": "string"
        }
      ],
      "name": "SubmitForm",
      "outputs": [],
      "stateMutability": "payable",
      "type": "function"
    },
    {
      "inputs": [],
      "name": "getSubmissions",
      "outputs": [
        {
          "components": [
            {
              "internalType": "address",
              "name": "from",
              "type": "address"
            },
            {
              "internalType": "uint256",
              "name": "timestamp",
              "type": "uint256"
            },
            {
              "internalType": "string",
              "name": "name",
              "type": "string"
            },
            {
              "internalType": "string",
              "name": "discord",
              "type": "string"
            }
          ],
          "internalType": "struct researchplus.FormSubmission[]",
          "name": "",
          "type": "tuple[]"
        }
      ],
      "stateMutability": "view",
      "type": "function"
    }
  ],
  "bytecode": "60806040527324f915f25ad6888c70adf3e567d0c9dc812faacb6000806101000a81548173ffffffffffffffffffffffffffffffffffffffff021916908373ffffffffffffffffffffffffffffffffffffffff16021790555034801561006457600080fd5b5033600260006101000a81548173ffffffffffffffffffffffffffffffffffffffff021916908373ffffffffffffffffffffffffffffffffffffffff160217905550610b3e806100b56000396000f3fe6080604052600436106100295760003560e01c806354f6aa201461002e57806372f827d014610059575b600080fd5b34801561003a57600080fd5b50610043610075565b604051610050919061084c565b60405180910390f35b610073600480360381019061006e91906105fb565b6102b2565b005b6060600260009054906101000a900473ffffffffffffffffffffffffffffffffffffffff1673ffffffffffffffffffffffffffffffffffffffff163373ffffffffffffffffffffffffffffffffffffffff16146100d157600080fd5b6001805480602002602001604051908101604052809291908181526020016000905b828210156102a957838290600052602060002090600402016040518060800160405290816000820160009054906101000a900473ffffffffffffffffffffffffffffffffffffffff1673ffffffffffffffffffffffffffffffffffffffff1673ffffffffffffffffffffffffffffffffffffffff1681526020016001820154815260200160028201805461018690610a0b565b80601f01602080910402602001604051908101604052809291908181526020018280546101b290610a0b565b80156101ff5780601f106101d4576101008083540402835291602001916101ff565b820191906000526020600020905b8154815290600101906020018083116101e257829003601f168201915b5050505050815260200160038201805461021890610a0b565b80601f016020809104026020016040519081016040528092919081815260200182805461024490610a0b565b80156102915780601f1061026657610100808354040283529160200191610291565b820191906000526020600020905b81548152906001019060200180831161027457829003601f168201915b505050505081525050815260200190600101906100f3565b50505050905090565b600160405180608001604052803373ffffffffffffffffffffffffffffffffffffffff16815260200142815260200184815260200183815250908060018154018082558091505060019003906000526020600020906004020160009091909190915060008201518160000160006101000a81548173ffffffffffffffffffffffffffffffffffffffff021916908373ffffffffffffffffffffffffffffffffffffffff1602179055506020820151816001015560408201518160020190805190602001906103819291906104a6565b50606082015181600301908051906020019061039e9291906104a6565b5050503373ffffffffffffffffffffffffffffffffffffffff167fba41d9b7c80f98a1023253cee2479564f03da0c30a1a285e2740d05a3bdf0a604284846040516103eb9392919061086e565b60405180910390a260008054906101000a900473ffffffffffffffffffffffffffffffffffffffff1673ffffffffffffffffffffffffffffffffffffffff1663a9059cbb3360016040518363ffffffff1660e01b815260040161044f929190610823565b602060405180830381600087803b15801561046957600080fd5b505af115801561047d573d6000803e3d6000fd5b505050506040513d601f19601f820116820180604052508101906104a191906105ce565b505050565b8280546104b290610a0b565b90600052602060002090601f0160209004810192826104d4576000855561051b565b82601f106104ed57805160ff191683800117855561051b565b8280016001018555821561051b579182015b8281111561051a5782518255916020019190600101906104ff565b5b509050610528919061052c565b5090565b5b8082111561054557600081600090555060010161052d565b5090565b600061055c610557846108d8565b6108b3565b90508281526020810184848401111561057857610577610ad1565b5b6105838482856109c9565b509392505050565b60008151905061059a81610af1565b92915050565b600082601f8301126105b5576105b4610acc565b5b81356105c5848260208601610549565b91505092915050565b6000602082840312156105e4576105e3610adb565b5b60006105f28482850161058b565b91505092915050565b6000806040838503121561061257610611610adb565b5b600083013567ffffffffffffffff8111156106305761062f610ad6565b5b61063c858286016105a0565b925050602083013567ffffffffffffffff81111561065d5761065c610ad6565b5b610669858286016105a0565b9150509250929050565b600061067f838361079b565b905092915050565b6106908161096f565b82525050565b61069f8161096f565b82525050565b60006106b082610919565b6106ba818561093c565b9350836020820285016106cc85610909565b8060005b8581101561070857848403895281516106e98582610673565b94506106f48361092f565b925060208a019950506001810190506106d0565b50829750879550505050505092915050565b610723816109b7565b82525050565b600061073482610924565b61073e818561094d565b935061074e8185602086016109d8565b61075781610ae0565b840191505092915050565b600061076d82610924565b610777818561095e565b93506107878185602086016109d8565b61079081610ae0565b840191505092915050565b60006080830160008301516107b36000860182610687565b5060208301516107c66020860182610805565b50604083015184820360408601526107de8282610729565b915050606083015184820360608601526107f88282610729565b9150508091505092915050565b61080e816109ad565b82525050565b61081d816109ad565b82525050565b60006040820190506108386000830185610696565b610845602083018461071a565b9392505050565b6000602082019050818103600083015261086681846106a5565b905092915050565b60006060820190506108836000830186610814565b81810360208301526108958185610762565b905081810360408301526108a98184610762565b9050949350505050565b60006108bd6108ce565b90506108c98282610a3d565b919050565b6000604051905090565b600067ffffffffffffffff8211156108f3576108f2610a9d565b5b6108fc82610ae0565b9050602081019050919050565b6000819050602082019050919050565b600081519050919050565b600081519050919050565b6000602082019050919050565b600082825260208201905092915050565b600082825260208201905092915050565b600082825260208201905092915050565b600061097a8261098d565b9050919050565b60008115159050919050565b600073ffffffffffffffffffffffffffffffffffffffff82169050919050565b6000819050919050565b60006109c2826109ad565b9050919050565b82818337600083830152505050565b60005b838110156109f65780820151818401526020810190506109db565b83811115610a05576000848401525b50505050565b60006002820490506001821680610a2357607f821691505b60208210811415610a3757610a36610a6e565b5b50919050565b610a4682610ae0565b810181811067ffffffffffffffff82111715610a6557610a64610a9d565b5b80604052505050565b7f4e487b7100000000000000000000000000000000000000000000000000000000600052602260045260246000fd5b7f4e487b7100000000000000000000000000000000000000000000000000000000600052604160045260246000fd5b600080fd5b600080fd5b600080fd5b600080fd5b6000601f19601f8301169050919050565b610afa81610981565b8114610b0557600080fd5b5056fea264697066735822122010e7bcfeb6a094dda55ddbdcdac25702495cac2111656815cbe98501b3131d4f64736f6c63430008070033",
  "linkReferences": {},
  "deployedLinkReferences": {}
}